:020000040800F2
:100000000805002045010008FD0300088D030008D5
:10001000F9030008B9010008A10A00080000000067
:1000200000000000000000000000000015050008AE
:10003000BD01000800000000FF03000801060008E1
:100040005F0100085F0100085F0100085F01000810
:100050005F0100085F010008BF0100085F010008A0
:100060005F0100085F0100085F0100085F010008F0
:100070005F0100085F0100085F0100085F010008E0
:100080005F0100085F0100085F0100085F010008D0
:100090005F0100085F0100085F0100085F010008C0
:1000A0005F0100085F0100085F0100085F010008B0
:1000B0005F0100085F0100085F0100085F010008A0
:1000C0005F0100085F0100085F0100085F01000890
:1000D0005F0100085F0100085F0100085F01000880
:1000E0005F0100085F0100085F0100085F01000870
:1000F0005F0100085F0100085F0100085F01000860
:100100005F0100085F0100085F0100085F0100084F
:100110005F0100085F010008650600085F01000834
:100120005F0100085F0100085F0100085F0100082F
:10013000DFF80CD000F02EF8004800477D0C0008D6
:10014000080500200648804706480047FEE7FEE70E
:10015000FEE7FEE7FEE7FEE7FEE7FEE7FEE7FEE777
:10016000050600083101000830B50B4601460020A5
:100170002022012409E021FA02F59D4205D303FA69
:1001800002F5491B04FA02F52844151EA2F10102EA
:10019000F1DC30BD064C074D06E0E06840F001039D
:1001A00094E8070098471034AC42F6D3FFF7C4FF39
:1001B000F40C0008140D000800BFFEE7704710B5EE
:1001C000012000F005F80121002000F0E1F810BD49
:1001D0000149086070470000140401402DE9F04116
:1001E000024600250026002000230024002791F865
:1001F00003C00CF00F0591F803C00CF0100CBCF11B
:10020000000F03D091F802C04CEA050591F800C038
:10021000BCF1000F31D0146800202BE04FF0010C2E
:100220000CFA00F3B1F800C00CEA03069E4220D19C
:1002300083004FF00F0C0CFA03F7BC4305FA03FCE4
:100240004CEA040491F803C0BCF1280F06D14FF02A
:10025000010C0CFA00FCC2F814C00AE091F803C0CB
:10026000BCF1480F05D14FF0010C0CFA00FCC2F8AC
:1002700010C0401C0828D1D31460B1F800C0BCF1F4
:10028000FF0F34DD546800202EE000F1080C4FF021
:10029000010808FA0CF3B1F800C00CEA03069E420C
:1002A00021D183004FF00F0C0CFA03F7BC4305FA81
:1002B00003FC4CEA040491F803C0BCF1280F05D1FB
:1002C00000F1080C08FA0CF8C2F8148091F803C089
:1002D000BCF1480F07D100F1080C4FF0010808FAF3
:1002E0000CF8C2F81080401C0828CED35460BDE83A
:1002F000F0810000F0B50A4600230024002100250B
:1003000000F00046B6F1004F02D11D4EF16901E048
:100310001B4E7168C0F3034583B200F44016B6F576
:10032000401F08D121F07061154E766826F0706686
:10033000134F7E6012E000F48016B6F5801F06D1E0
:10034000032606FA05F4A14341F0706106E0460D6C
:10035000360103FA06F6B14341F0706122B1460D51
:10036000360103FA06F6314300F00046B6F1004FBD
:1003700002D1034EF16101E0014E7160F0BD000059
:1003800000000140416170470161704700BFFEE716
:1003900070B504460D46012D15D124B1012C07D0AE
:1003A000022C0FD109E020211248FFF7EBFF09E0F2
:1003B00002211048FFF7E6FF04E001210D48FFF796
:1003C000E1FF00BF15E024B1012C07D0022C0FD1B2
:1003D00009E020210748FFF7D7FF09E0022105487F
:1003E000FFF7D2FF04E001210248FFF7CDFF00BF75
:1003F00000BF70BD000C014000BFFEE770477047B2
:1004000029B1064AD2690243044BDA6104E0034A87
:10041000D2698243014BDA6170470000001002404C
:1004200029B1064A92690243044B9A6104E0034AE7
:1004300092698243014B9A617047000000100240AC
:1004400030B500210022002400232D4D6D6805F0F9
:100450000C0121B1042905D0082923D105E0294D3B
:10046000056022E0274D05601FE0254D6D6805F40D
:100470007012234D6D6805F48034022505EB92421D
:100480001CB9214D554305600BE01D4D6D6805F409
:1004900000351DB11C4D5543056002E0194D554313
:1004A000056002E0174D056000BF00BF144D6D6888
:1004B00005F0F0010909154D6B5C0568DD404560EC
:1004C0000F4D6D6805F4E061090A104D6B5C4568DD
:1004D000DD4085600A4D6D6805F46051C90A0B4D19
:1004E0006B5C4568DD40C560054D6D6805F44041B5
:1004F000890B074D6B5CC568B5FBF3F5056130BD35
:100500000010024000127A0000093D0000000020A7
:1005100010000020704710B500F002F810BD000078
:100520000CB50020019000903348006840F4803002
:100530003149086000BF3048006800F40030009086
:100540000198401C0190009818B90198B0F5A06F6F
:10055000F1D12948006800F4003010B1012000906A
:1005600001E0002000900098012843D12348006852
:1005700040F01000214908600846006820F00300A0
:1005800008600846006840F0020008601A484068A9
:10059000194948600846406848600846406840F489
:1005A000806048600846406820F47C104860084637
:1005B000406840F4E81048600846006840F08070E9
:1005C000086000BF0C48006800F000700028F9D0F7
:1005D0000948406820F00300074948600846406821
:1005E00040F00200486000BF0348406800F00C0083
:1005F0000828F9D10CBD0000001002400020024084
:100600007047000010B51348006840F00100114920
:10061000086008464068104908400E49486008468E
:1006200000680E4908400B4908600846006820F43D
:10063000802008600846406820F4FE0048604FF4BF
:100640001F008860FFF767FF4FF0006004490860F3
:1006500010BD0000001002400000FFF8FFFFF6FE92
:1006600008ED00E010B50121074800F02CF8012842
:1006700009D10121044800F017F80448006880F00F
:1006800020000249086010BD001000400C0C014021
:1006900021B1028842F08002028004E002884FF615
:1006A0007F731A4002807047CA430282704721B1AB
:1006B000028842F00102028004E002884FF6FE73D5
:1006C0001A400280704730B5024600200023002403
:1006D000158A05EA0103958905EA010413B10CB1F5
:1006E000012000E0002030BD70B50024002200236E
:1006F000058C4FF6EF7635400584028C8388048B99
:1007000048F6FF752C404FF6FF452C400D884FF6FC
:10071000FF7606EA05252C434FF6DF752A400D8942
:1007200006EA05152A434D8806EA05152A43154DA4
:10073000A84202D0144DA8421DD14FF67F752A4021
:100740004D894FF6FF7606EA05152A434FF6BF7529
:100750002A408D8806EA05152A434FF6FF352B40BF
:100760004FF2FF752B408D8906EA85052B43CD8915
:1007700006EA85052B4383800483CD8805870284A0
:1007800070BD0000002C0140003401400A460021E9
:10079000018B4FF2FF7319404FF6FF7303EA0223F8
:1007A000194301837047000000B589B0012108207A
:1007B000FFF736FE18208DF823002020ADF820002A
:1007C00003208DF8220008A92348FFF707FD012127
:1007D0000846FFF725FE01212048FFF78BFD012188
:1007E0000220FFF70DFE40F2FF30ADF81800C720E1
:1007F000ADF814000020ADF81A00ADF8160005A9F8
:10080000174800F02FF801211548FFF750FF60202E
:10081000ADF804000020ADF80C000120ADF8060092
:100820000020ADF80800ADF80A000820ADF80E0071
:100830000020ADF81200ADF8100001A90848FFF73C
:1008400053FF08210648FFF7A1FF01210448FFF7E5
:100850001FFF09B000BD0000000C014000081A0095
:1008600000040040002202881D4B98420ED01D4B10
:1008700098420BD0B0F1804F08D01B4B984205D066
:100880001A4B984202D01A4B984204D14FF68F73FC
:100890001A404B881A43174B984207D0164B984280
:1008A00004D04FF6FF431A40CB881A4302808B884E
:1008B00083850B8803850A4B98420BD0094B9842DD
:1008C00008D00E4B984205D00D4B984202D00D4BEC
:1008D000984201D10B7A038601238382704700007E
:1008E000002C01400034014000040040000800409A
:1008F000000C004000100040001400400040014087
:10090000004401400048014021B1828942F4005274
:10091000828104E082894DF6FF731A40828170471C
:100920001FB500F09DF801218803FFF779FD4FF412
:10093000E13000900020ADF80C000C20ADF80A006A
:100940000020ADF80800ADF80600ADF804006946D7
:10095000034800F015F801210148FFF7D5FF1FBD3E
:100960000038014002460020B1F5007F00D100BFF1
:1009700013880B400BB1012000E0002070470000FD
:100980002DE9F04786B005460E460024A24600BF7A
:10099000A1460027B08900B100BF2F462C8A4CF633
:1009A000FF700440F08804432C82AC894EF6F310AB
:1009B0000440B08831890843718908430443AC81FD
:1009C000AC8A4FF6FF400440B0890443AC8201A8D2
:1009D000FFF736FD1F48874202D1DDF810A001E085
:1009E000DDF80CA0A88900F4004040B10AEBCA0071
:1009F00000EB0A1031684900B0FBF1F807E00AEBA0
:100A0000CA0000EB0A1031688900B0FBF1F86420DD
:100A1000B8FBF0F004012009642101FB1089A889CA
:100A200000F4004040B1322000EBC900B0FBF1F00F
:100A300000F00700044308E0322000EB09106421B5
:100A4000B0FBF1F000F00F0004432C8106B0BDE8CC
:100A5000F087000000380140C1F30802828070472F
:100A600008B501210420FFF7DBFC18208DF80300F6
:100A70004FF40070ADF8000003208DF802006946C5
:100A80000648FFF7ABFB04208DF803000002ADF829
:100A9000000069460148FFF7A1FB08BD00080140BE
:100AA00000BFFEE70FB4054B10B503A9044A029836
:100AB00000F018F810BC5DF814FB0000590C000899
:100AC0000401002002E008C8121F08C1002AFAD160
:100AD00070477047002001E001C1121F002AFBD1BE
:100AE000704700002DE9FF4F89B09B460446002562
:100AF00006E025280BD05A460B999047641C6D1CC4
:100B000020780028F5D10DB02846BDE8F08F0027E9
:100B1000B8460122474900E0074314F8013F203B53
:100B200002FA03F00842F7D120782E2819D114F8E0
:100B3000010F47F004072A280ED06FF02F0220780B
:100B4000A0F1300109290CD808EB880102EB410122
:100B500000EB0108641CF2E70A98641C50F8048B4F
:100B60000A9020780028CED0642808D0692806D0C2
:100B700075281ED05A460B9990476D1C58E00A996B
:100B80004FF00A0901C90A91002802DA40422D21DA
:100B900002E0390504D52B218DF82010012103E056
:100BA000F90704D02021F7E78A4608AE0DE00021BE
:100BB000FAE70A994FF00A0901C90A91F7E749468D
:100BC000FFF7D2FA303106F8011D0028F7D1ADEB5E
:100BD000060000F12009780701D44FF00108C8454C
:100BE00002DDA8EB090000E000208046002706E0B7
:100BF00008A85A46C05D0B9990476D1C7F1C57454D
:100C0000F6DB04E030205A460B9990476D1CB8F192
:100C10000001A8F10108F5DC05E016F8010B5A46C1
:100C20000B9990476D1CB9F10001A9F10109F4DCA1
:100C3000641C65E709280100002109E0002201E0A9
:100C4000531C9AB242F228339A42F9DB4B1C99B2F8
:100C50008142F3DB7047000070B504460D46E1B2F7
:100C60000548FFF7F9FE00BF80210348FFF77AFE31
:100C70000028F9D0204670BD003801400024FFF75D
:100C80004FFE0EA0FFF70EFFFFF78EFD15E0104898
:100C90000088844200DB00242146621C94B20D4A85
:100CA00032F8110000F020F80A4830F814100AA0B9
:100CB000FFF7F8FE3220FFF7BFFFE8E750574D205F
:100CC0005465737420537461727465640A00000083
:100CD000F00000201400002070776D5F696E64657D
:100CE000783D25640A000000014A1080704700002A
:100CF00038040040140D0008000000200801000026
:100D0000C40A00081C0E00080801002000040000AE
:100D1000D40A0008000000000102030401020304D9
:100D2000060708090204060801000100010001008D
:100D3000020002000200020003000300040004009D
:100D40000500050006000700080009000A000B0066
:100D50000D000F0011001300160019001C002000E8
:100D6000240029002F0035003D0045004F005900A8
:100D70006600740083009500AA00C100DB00FA0041
:100D80001C0143016F01A101DA011B026502B902D6
:100D900018038503FE03FE0385031803B9026502E9
:100DA0001B02DA01A1016F0143011C01FA00DB0003
:100DB000C100AA00950083007400660059004F002E
:100DC00045003D0035002F002900240020001C00B4
:100DD00019001600130011000F000D000B000A008F
:100DE00009000800070006000500050004000400D3
:100DF00003000300020002000200020001000100E3
:100E0000010001006E000808081C14141436222288
:0C0E10004243FFFF000000000000000053
:0400000508000131BD
:00000001FF
