:020000040800F2
:100000003804002045010008D10C0008C104000894
:10001000CD0C0008DD0100082511000800000000DB
:10002000000000000000000000000000E90D0008D2
:10003000E101000800000000D30C0008D50E000804
:100040005F0100085F0100085F0100085F01000810
:100050005F0100085F010008E30100085F0100087C
:100060005F0100085F0100085F0100085F010008F0
:100070005F0100085F0100085F0100085F010008E0
:100080005F0100085F0100085F0100085F010008D0
:100090005F0100085F0100085F0100085F010008C0
:1000A0005F0100085F0100085F0100085F010008B0
:1000B0005F0100085F0100085F0100085F010008A0
:1000C0005F0100085F0100085F0100085F01000890
:1000D0005F0100085F0100085F0100085F01000880
:1000E0005F0100085F0100085F0100085F01000870
:1000F0005F0100085F0100085F0100085F01000860
:100100005F0100085F0100085F0100085F0100084F
:100110005F0100085F010008390F00085F01000857
:100120005F0100085F0100085F0100085F0100082F
:10013000DFF80CD000F040F8004800471514000824
:10014000380400200648804706480047FEE7FEE7DF
:10015000FEE7FEE7FEE7FEE7FEE7FEE7FEE7FEE777
:10016000D90E00083101000840EA01039B0703D0C3
:1001700009E008C9121F08C0042AFAD203E011F8E6
:10018000013B00F8013B521EF9D2704730B50B46D7
:10019000014600202022012409E021FA02F59D42B7
:1001A00005D303FA02F5491B04FA02F52844151E8B
:1001B000A2F10102F1DC30BD064C074D06E0E0681B
:1001C00040F0010394E8070098471034AC42F6D39E
:1001D000FFF7B2FF6C1400088C14000800BFFEE7A4
:1001E000704710B5012000F005F80121002000F053
:1001F00039FD10BD0149086070470000140401403A
:1002000051B18200A2F1C042126842F001038200A3
:10021000A2F1C042136009E08200A2F1C04212685C
:10022000034B1A408300A3F1C0431A6070470000DB
:10023000FEFF0F00D0E901121143C26811430269A9
:1002400011434269114382691143C2691143026A31
:100250001143426A1143826A1143C26A1143026B1D
:10026000114302689200A2F1C0421160816808291E
:100270000BD101688900A1F1C041096841F0400239
:1002800001688900A1F1C0410A60416B0968426BB5
:10029000526841EA0211426B926841EA0221426BC4
:1002A000928941EA0241426B128A41EA0251426B51
:1002B000127D41EA0261426B926911430268521C4D
:1002C0009200A2F1C0421160C16AB1F5804F1BD10A
:1002D000816B0968826B526841EA0211826B9268F5
:1002E00041EA0221826B128A41EA0251826B127D3D
:1002F00041EA0261826B9269114302689200A2F1A5
:10030000C042C2F8041107E06FF070420168890032
:10031000A1F1C041C1F80421704700B59DB0012191
:10032000080200F0D7FC012007900020089005206B
:10033000099000200A900B9005904FF08050069095
:100340001C22694607A8FFF70FFF00200E900F90B0
:10035000109010201190002012901390149015907E
:1003600016904FF480501790002018904FF4804062
:10037000199000201A9007A81B90CDF870D00EA8F5
:10038000FFF758FF01210020FFF73AFF1DB000BD25
:100390002DE9F0410246002500260020002300241C
:1003A000002791F803C00CF00F0591F803C00CF082
:1003B000100CBCF1000F03D091F802C04CEA050507
:1003C00091F800C0BCF1000F31D0146800202BE080
:1003D0004FF0010C0CFA00F3B1F800C00CEA030670
:1003E0009E4220D183004FF00F0C0CFA03F7BC4360
:1003F00005FA03FC4CEA040491F803C0BCF1280F91
:1004000006D14FF0010C0CFA00FCC2F814C00AE04F
:1004100091F803C0BCF1480F05D14FF0010C0CFA64
:1004200000FCC2F810C0401C0828D1D31460B1F8F9
:1004300000C0BCF1FF0F34DD546800202EE000F155
:10044000080C4FF0010808FA0CF3B1F800C00CEAF0
:1004500003069E4221D183004FF00F0C0CFA03F7E4
:10046000BC4305FA03FC4CEA040491F803C0BCF158
:10047000280F05D100F1080C08FA0CF8C2F8148016
:1004800091F803C0BCF1480F07D100F1080C4FF000
:10049000010808FA0CF8C2F81080401C0828CED3D6
:1004A0005460BDE8F0810246002093680B400BB118
:1004B000012000E0002070474161704701617047F2
:1004C00000BFFEE710B504462CB14FF4805105483B
:1004D000FFF7F2FF04E04FF480510248FFF7EEFF10
:1004E00010BD00000014014001B502E00098401E5C
:1004F000009000980028F9D108BD000000B5024620
:10050000072A00DD00BD31480270104602EBD071B1
:100510004910A2EB410139B9F0202D4908804FF470
:10052000A0702C49088006E04FF4A070284908808C
:10053000F02028490880362000F0BEFA26480088BE
:1005400049F24131884205D1082141EA421000F0C8
:10055000B7FA0AE02048008848F25251884204D194
:10056000002141EA421000F0ABFA2A2000F0A4FA80
:10057000002000F0A5FA002000F0A2FA1449098832
:10058000491EC1F3072000F09BFA11490978491E62
:10059000C8B200F095FA2B2000F08EFA002000F08F
:1005A0008FFA002000F08CFA0A490988491EC1F32D
:1005B000072000F085FA07490978491EC8B200F003
:1005C0007FFA2C2000F078FA00BF9BE72C00002077
:1005D00024000020260000202E00002010B500F08E
:1005E00025FAFE4908800846008849F241318842D0
:1005F0007ED1CF2000F060FA002000F061FA812067
:1006000000F05EFA302000F05BFAED2000F054FAC2
:10061000642000F055FA032000F052FA122000F096
:100620004FFA812000F04CFAE82000F045FA8520CE
:1006300000F046FA102000F043FA782000F040FA6B
:10064000CB2000F039FA392000F03AFA2C2000F0E3
:1006500037FA002000F034FA342000F031FA062096
:1006600000F02EFAF72000F027FA202000F028FAF8
:10067000EA2000F021FA002000F022FA002000F029
:100680001FFAB12000F018FA002000F019FA1B2020
:1006900000F016FAB62000F00FFA0A2000F010FA67
:1006A000A22000F00DFAC02000F006FA352000F07C
:1006B00007FAC12000F000FA112000F001FAC5206D
:1006C00000F0FAF9452000F0FBF9452000F0F8F9B8
:1006D000C72000F0F1F9A22000F0F2F9F22000F0BA
:1006E000EBF9002000F0ECF9262000F0E5F900E03D
:1006F00096E0012000F0E4F9E02000F0DDF90F20A1
:1007000000F0DEF9262000F0DBF9242000F0D8F913
:100710000B2000F0D5F90E2000F0D2F9092000F0EE
:10072000CFF9542000F0CCF9A82000F0C9F94620F8
:1007300000F0C6F90C2000F0C3F9172000F0C0F952
:10074000092000F0BDF90F2000F0BAF9072000F0F1
:10075000B7F9002000F0B4F9E12000F0ADF9002075
:1007600000F0AEF9192000F0ABF91B2000F0A8F959
:10077000042000F0A5F9102000F0A2F9072000F0F5
:100780009FF92A2000F09CF9472000F099F93920C0
:1007900000F096F9032000F093F9062000F090F99C
:1007A000062000F08DF9302000F08AF9382000F0A2
:1007B00087F90F2000F084F9362000F07DF9C82079
:1007C00000F07EF92A2000F077F9002000F078F997
:1007D000002000F075F9002000F072F9EF2000F021
:1007E0006FF92B2000F068F9002000F069F9002073
:1007F00000F066F9012000F063F93F2000F060F995
:100800003A2000F059F9552000F05AF9112000F073
:1008100053F97348FFF768FE292000F04DF901E114
:100820006E48008848F252518842F8D1CF2000F03B
:1008300043F9002000F044F9C12000F041F93020D4
:1008400000F03EF9ED2000F037F9642000F038F9AF
:10085000032000F035F9122000F032F9812000F079
:100860002FF9E82000F028F9852000F029F9102060
:1008700000F026F9782000F023F9CB2000F01CF9D5
:10088000392000F01DF92C2000F01AF9002000F0AA
:1008900017F9342000F014F9022000F011F9F720C4
:1008A00000F00AF9202000F00BF9EA2000F004F92A
:1008B000002000F005F9002000F002F9C02000F04F
:1008C000FBF8212000F0FCF8C12000F0F5F8112021
:1008D00000F0F6F8C52000F0EFF82D2000F0F0F859
:1008E000332000F0EDF8362000F0E6F8002000F0AC
:1008F000E7F83A2000F0E0F8552000F0E1F8B120E8
:1009000000F0DAF8002000F0DBF8172000F0D8F84B
:10091000B62000F0D1F80A2000F0D2F8A22000F0B2
:10092000CFF8F62000F0C8F8012000F0C9F8302018
:1009300000F0C6F8F22000F0BFF8002000F0C0F888
:10094000262000F0B9F8012000F0BAF8E02000F00D
:10095000B3F8D02000F0B4F8002000F0B1F8022085
:1009600000F0AEF8072000F0ABF80B2000F0A8F87C
:100970001A2000F0A5F8312000F0A2F8542000F071
:100980009FF8402000F09CF8292000F099F81220F0
:1009900000F096F8122000F093F8122000F090F882
:1009A000172000F08DF8E12000F086F8D02000F04C
:1009B00087F8002000F084F8022000F081F807207A
:1009C00000F07EF8052000F07BF8252000F078F894
:1009D0002D2000F075F8442004E000002E000020D7
:1009E000FCBF020000F06CF8452000F069F81C2004
:1009F00000F066F8182000F063F8162000F060F8A8
:100A00001C2000F05DF81D2000F05AF8112000F0C5
:100A100053F80548FFF768FD292000F04DF82C2019
:100A200000F04AF810BD0000FCBF020000B5002233
:100A3000042000F041F800F013FD00F011FD00F07B
:100A40000FFD02464FF6FF7000EA022200F008FD9B
:100A5000024348F25250824201D1104600BDD320D9
:100A600000F02AF800F0FCFC00F0FAFC00F0F8FCC2
:100A700002464FF6FF7000EA022200F0F1FC02434A
:100A800049F24130824201D11046E7E70020E5E714
:100A900010B502210748FFF70FFD40F6FF20FFF7D2
:100AA00023FD02210348FFF709FD40F6FF20FFF771
:100AB0001BFD10BD001801404FF0C0410880704779
:100AC00001490880704700000000026008B501215C
:100AD000602000F00FF903208DF8020018208DF837
:100AE00003004FF48040ADF8000069465B48FFF713
:100AF0004FFC4FF40040ADF8000069465748FFF73F
:100B000047FC0120ADF8000069465448FFF740FC5F
:100B10000220ADF8000069465048FFF739FC8020FC
:100B2000ADF8000069464E48FFF732FC4FF4807084
:100B3000ADF8000069464A48FFF72AFC4FF4007000
:100B4000ADF8000069464648FFF722FC4FF480608C
:100B5000ADF8000069464248FFF71AFC4FF4006008
:100B6000ADF8000069463E48FFF712FC4FF4805094
:100B7000ADF8000069463A48FFF70AFC4FF4005010
:100B8000ADF8000069463648FFF702FC4FF480409C
:100B9000ADF8000069463248FFF7FAFB4FF4004019
:100BA000ADF8000069462E48FFF7F2FB4FF4807065
:100BB000ADF8000069462948FFF7EAFB4FF40070E2
:100BC000ADF8000069462548FFF7E2FB4FF480606E
:100BD000ADF8000069462148FFF7DAFB03208DF8E5
:100BE000020018208DF803001020ADF800006946BF
:100BF0001A48FFF7CDFB2020ADF8000069461748E2
:100C0000FFF7C6FB8020ADF8000069461348FFF7E8
:100C1000BFFB4FF40060ADF8000069460F48FFF7D6
:100C2000B7FB10208DF8030003208DF8020002208E
:100C3000ADF8000069460A48FFF7AAFB10208DF8BE
:100C4000030003208DF802004FF48050ADF800003F
:100C500069460248FFF79CFB08BD000000140140F4
:100C60000018014070B504460D46012D15D124B180
:100C7000012C07D0022C0FD109E020211248FFF7E8
:100C80001BFC09E002211048FFF716FC04E00121DB
:100C90000D48FFF711FC00BF15E024B1012C07D06F
:100CA000022C0FD109E020210748FFF707FC09E0DB
:100CB00002210548FFF702FC04E001210248FFF78A
:100CC000FDFB00BF00BF70BD000C014000BFFEE790
:100CD0007047704729B1064A52690243044B5A6172
:100CE00004E0034A52698243014B5A617047000095
:100CF0000010024029B1064A92690243044B9A61EE
:100D000004E0034A92698243014B9A6170470000F4
:100D10000010024030B500210022002400232D4D98
:100D20006D6805F00C0121B1042905D0082923D1F3
:100D300005E0294D056022E0274D05601FE0254DA7
:100D40006D6805F47012234D6D6805F4803402253A
:100D500005EB92421CB9214D554305600BE01D4D3A
:100D60006D6805F400351DB11C4D5543056002E06A
:100D7000194D5543056002E0174D056000BF00BFE7
:100D8000144D6D6805F0F0010909154D6B5C05689F
:100D9000DD4045600F4D6D6805F4E061090A104DB6
:100DA0006B5C4568DD4085600A4D6D6805F46051F7
:100DB000C90A0B4D6B5C4568DD40C560054D6D682B
:100DC00005F44041890B074D6B5CC568B5FBF3F535
:100DD000056130BD0010024000127A0000093D009C
:100DE0000000002010000020704710B500F002F84D
:100DF00010BD00000CB50020019000903348006841
:100E000040F480303149086000BF3048006800F489
:100E1000003000900198401C0190009818B901988A
:100E2000B0F5A06FF1D12948006800F4003010B18E
:100E30000120009001E0002000900098012843D19B
:100E40002348006840F01000214908600846006807
:100E500020F0030008600846006840F002000860C7
:100E60001A48406819494860084640684860084682
:100E7000406840F4806048600846406820F47C1078
:100E800048600846406840F4E8104860084600683A
:100E900040F08070086000BF0C48006800F00070EF
:100EA0000028F9D00948406820F00300074948604D
:100EB0000846406840F00200486000BF03484068B0
:100EC00000F00C000828F9D10CBD00000010024011
:100ED000002002407047000010B51348006840F041
:100EE00001001149086008464068104908400E4951
:100EF0004860084600680E4908400B4908600846EB
:100F0000006820F4802008600846406820F4FE0055
:100F100048604FF41F008860FFF767FF4FF00060E4
:100F20000449086010BD0000001002400000FFF8F6
:100F3000FFFFF6FE08ED00E010B50121074800F0C4
:100F400014F8012809D10121044800F00BF80448E5
:100F5000006880F020000249086010BD00100040C9
:100F60000C0C0140CA430282704730B50246002093
:100F700000230024158A05EA0103958905EA010486
:100F800013B10CB1012000E0002030BD21B18289F5
:100F900042F40052828104E082894DF6FF731A40C8
:100FA000828170471FB500F09DF801218803FFF78B
:100FB000A1FE4FF4E13000900020ADF80C000C20B1
:100FC000ADF80A000020ADF80800ADF80600ADF855
:100FD00004006946034800F015F801210148FFF7B5
:100FE000D5FF1FBD0038014002460020B1F5007F4B
:100FF00000D100BF13880B400BB1012000E000209E
:10100000704700002DE9F04786B005460E460024E3
:10101000A24600BFA1460027B08900B100BF2F46FD
:101020002C8A4CF6FF700440F08804432C82AC8973
:101030004EF6F3100440B0883189084371890843A3
:101040000443AC81AC8A4FF6FF400440B0890443AE
:10105000AC8201A8FFF75EFE1F48874202D1DDF88F
:1010600010A001E0DDF80CA0A88900F4004040B118
:101070000AEBCA0000EB0A1031684900B0FBF1F836
:1010800007E00AEBCA0000EB0A1031688900B0FBE8
:10109000F1F86420B8FBF0F004012009642101FBA1
:1010A0001089A88900F4004040B1322000EBC9004B
:1010B000B0FBF1F000F00700044308E0322000EB41
:1010C00009106421B0FBF1F000F00F0004432C8103
:1010D00006B0BDE8F087000000380140C1F3080207
:1010E0008280704708B501210420FFF703FE182015
:1010F0008DF803004FF40070ADF8000003208DF868
:10110000020069460648FFF743F904208DF8030002
:101110000002ADF8000069460148FFF739F908BD43
:101120000008014000BFFEE70FB4054B10B503A94E
:10113000044A029800F018F810BC5DF814FB000097
:10114000BD1200083000002002E008C8121F08C1CC
:10115000002AFAD170477047002001E001C1121F38
:10116000002AFBD1704700002DE9FF4F89B09B4654
:101170000446002506E025280BD05A460B999047D7
:10118000641C6D1C20780028F5D10DB02846BDE800
:10119000F08F0027B8460122474900E0074314F8C2
:1011A000013F203B02FA03F00842F7D120782E28B5
:1011B00019D114F8010F47F004072A280ED06FF058
:1011C0002F022078A0F1300109290CD808EB880102
:1011D00002EB410100EB0108641CF2E70A98641C71
:1011E00050F8048B0A9020780028CED0642808D0CC
:1011F000692806D075281ED05A460B9990476D1C59
:1012000058E00A994FF00A0901C90A91002802DA48
:1012100040422D2102E0390504D52B218DF8201004
:10122000012103E0F90704D02021F7E78A4608AE40
:101230000DE00021FAE70A994FF00A0901C90A9165
:10124000F7E74946FEF7A2FF303106F8011D0028F6
:10125000F7D1ADEB060000F12009780701D44FF07B
:101260000108C84502DDA8EB090000E00020804627
:10127000002706E008A85A46C05D0B9990476D1CF0
:101280007F1C5745F6DB04E030205A460B99904707
:101290006D1CB8F10001A8F10108F5DC05E016F8B5
:1012A000010B5A460B9990476D1CB9F10001A9F149
:1012B0000109F4DC641C65E70928010070B50446E7
:1012C0000D46E1B20548FFF709FF00BF8021034842
:1012D000FFF78AFE0028F9D0204670BD0038014093
:1012E0002DE9F04105460C46DDF818802A20FFF76D
:1012F000E3FB2812FFF7E4FB2846FFF7E1FBA91800
:10130000491EC1F30F20FFF7DBFBA918491E88B265
:10131000FFF7D6FB2B20FFF7CFFB2012FFF7D0FB08
:101320002046FFF7CDFBE118491EC1F30F20FFF760
:10133000C7FBE118491E88B2FFF7C2FB2C20FFF75C
:10134000BBFB002613E000270EE018F80600012181
:10135000B940084020B14FF47840FFF7B1FB02E0FC
:101360000020FFF7ADFB7F1C082FEEDB761C02FB95
:1013700003F0C11700EB5171B6EBE10FE3DBBDE801
:10138000F081000010B5FFF7A1FBFEF7C6FF0120BA
:10139000FFF798F8FFF77CFBFFF720F90248007889
:1013A000FFF7ACF810BD00002C00002010B50121A3
:1013B0000D48FFF778F828B14FF400510B48FFF7BC
:1013C00072F878B901210848FFF76DF8012800D1BB
:1013D00010BD4FF400510548FFF765F8012801D111
:1013E0000220F5E70020F3E700080140001001406B
:1013F00010B5FFF7DBFF0446012C04D101210020CA
:10140000FFF730FC05E0022C03D101210846FFF76D
:1014100029FC10BD08B5FFF7C5FD0CA0FFF784FE41
:10142000FFF7B0FFFFF702FB044621460AA0FFF7D3
:101430007BFE0A4810230822002100900846FFF78F
:101440004FFF01E0FFF7D4FFFCE700007465737401
:1014500020626567696E0A002564000014000020A0
:101460000149088870470000000002608C140008E1
:10147000000000203400000048110008C0140008DB
:10148000340000200404000058110008000000008F
:101490000102030401020304060708090204060806
:1014A0000808081C1414143622224243FFFF0000CF
:1014B000F00040010000FFFF0600000000000000F7
:0400000508000131BD
:00000001FF
